{
  "_format": "hh-sol-artifact-1",
  "contractName": "DocotorToPatient",
  "sourceName": "contracts/DocotorToPatient.sol",
  "abi": [
    {
      "inputs": [],
      "stateMutability": "nonpayable",
      "type": "constructor"
    },
    {
      "inputs": [
        {
          "internalType": "string",
          "name": "email",
          "type": "string"
        },
        {
          "internalType": "uint256",
          "name": "age",
          "type": "uint256"
        },
        {
          "internalType": "string",
          "name": "name",
          "type": "string"
        },
        {
          "internalType": "string",
          "name": "date",
          "type": "string"
        },
        {
          "internalType": "string",
          "name": "testReportStatus",
          "type": "string"
        }
      ],
      "name": "NotVerifiedStored",
      "outputs": [],
      "stateMutability": "nonpayable",
      "type": "function"
    },
    {
      "inputs": [
        {
          "internalType": "string",
          "name": "email",
          "type": "string"
        },
        {
          "internalType": "string",
          "name": "name",
          "type": "string"
        },
        {
          "internalType": "uint256",
          "name": "age",
          "type": "uint256"
        }
      ],
      "name": "addPatient",
      "outputs": [],
      "stateMutability": "nonpayable",
      "type": "function"
    },
    {
      "inputs": [
        {
          "internalType": "string",
          "name": "email",
          "type": "string"
        },
        {
          "internalType": "uint256",
          "name": "age",
          "type": "uint256"
        },
        {
          "internalType": "string",
          "name": "name",
          "type": "string"
        },
        {
          "internalType": "string",
          "name": "date",
          "type": "string"
        },
        {
          "internalType": "string",
          "name": "testReportStatus",
          "type": "string"
        },
        {
          "internalType": "string",
          "name": "Prescribtions",
          "type": "string"
        }
      ],
      "name": "addRecords",
      "outputs": [],
      "stateMutability": "nonpayable",
      "type": "function"
    },
    {
      "inputs": [
        {
          "internalType": "string",
          "name": "a",
          "type": "string"
        },
        {
          "internalType": "string",
          "name": "b",
          "type": "string"
        }
      ],
      "name": "compareStrings",
      "outputs": [
        {
          "internalType": "bool",
          "name": "",
          "type": "bool"
        }
      ],
      "stateMutability": "pure",
      "type": "function"
    },
    {
      "inputs": [],
      "name": "doctor",
      "outputs": [
        {
          "internalType": "address",
          "name": "",
          "type": "address"
        }
      ],
      "stateMutability": "view",
      "type": "function"
    },
    {
      "inputs": [],
      "name": "getPateints",
      "outputs": [
        {
          "components": [
            {
              "internalType": "string",
              "name": "email",
              "type": "string"
            },
            {
              "internalType": "string",
              "name": "name",
              "type": "string"
            },
            {
              "internalType": "uint256",
              "name": "age",
              "type": "uint256"
            }
          ],
          "internalType": "struct DocotorToPatient.Patient[]",
          "name": "",
          "type": "tuple[]"
        }
      ],
      "stateMutability": "view",
      "type": "function"
    },
    {
      "inputs": [],
      "name": "getPatients",
      "outputs": [
        {
          "components": [
            {
              "internalType": "string",
              "name": "email",
              "type": "string"
            },
            {
              "internalType": "string",
              "name": "name",
              "type": "string"
            },
            {
              "internalType": "uint256",
              "name": "age",
              "type": "uint256"
            }
          ],
          "internalType": "struct DocotorToPatient.Patient[]",
          "name": "",
          "type": "tuple[]"
        }
      ],
      "stateMutability": "view",
      "type": "function"
    },
    {
      "inputs": [
        {
          "internalType": "string",
          "name": "email",
          "type": "string"
        }
      ],
      "name": "getpatientRecord",
      "outputs": [
        {
          "components": [
            {
              "internalType": "string",
              "name": "email",
              "type": "string"
            },
            {
              "internalType": "uint256",
              "name": "age",
              "type": "uint256"
            },
            {
              "internalType": "string",
              "name": "name",
              "type": "string"
            },
            {
              "internalType": "string",
              "name": "date",
              "type": "string"
            },
            {
              "internalType": "string",
              "name": "testReportStatus",
              "type": "string"
            },
            {
              "internalType": "string",
              "name": "Prescribtions",
              "type": "string"
            },
            {
              "internalType": "bool",
              "name": "verified",
              "type": "bool"
            }
          ],
          "internalType": "struct DocotorToPatient.PatientRecord[]",
          "name": "",
          "type": "tuple[]"
        }
      ],
      "stateMutability": "view",
      "type": "function"
    },
    {
      "inputs": [
        {
          "internalType": "address",
          "name": "add",
          "type": "address"
        }
      ],
      "name": "isRegistered",
      "outputs": [
        {
          "internalType": "bool",
          "name": "",
          "type": "bool"
        }
      ],
      "stateMutability": "view",
      "type": "function"
    },
    {
      "inputs": [],
      "name": "labTestedNotVerifiedRecords",
      "outputs": [
        {
          "components": [
            {
              "internalType": "uint256",
              "name": "repono",
              "type": "uint256"
            },
            {
              "internalType": "string",
              "name": "email",
              "type": "string"
            },
            {
              "internalType": "uint256",
              "name": "age",
              "type": "uint256"
            },
            {
              "internalType": "string",
              "name": "name",
              "type": "string"
            },
            {
              "internalType": "string",
              "name": "date",
              "type": "string"
            },
            {
              "internalType": "string",
              "name": "testReportStatus",
              "type": "string"
            },
            {
              "internalType": "bool",
              "name": "verified",
              "type": "bool"
            }
          ],
          "internalType": "struct DocotorToPatient.NotVerifiedarray[]",
          "name": "",
          "type": "tuple[]"
        }
      ],
      "stateMutability": "view",
      "type": "function"
    },
    {
      "inputs": [
        {
          "internalType": "uint256",
          "name": "",
          "type": "uint256"
        }
      ],
      "name": "notVeriifed",
      "outputs": [
        {
          "internalType": "uint256",
          "name": "repono",
          "type": "uint256"
        },
        {
          "internalType": "string",
          "name": "email",
          "type": "string"
        },
        {
          "internalType": "uint256",
          "name": "age",
          "type": "uint256"
        },
        {
          "internalType": "string",
          "name": "name",
          "type": "string"
        },
        {
          "internalType": "string",
          "name": "date",
          "type": "string"
        },
        {
          "internalType": "string",
          "name": "testReportStatus",
          "type": "string"
        },
        {
          "internalType": "bool",
          "name": "verified",
          "type": "bool"
        }
      ],
      "stateMutability": "view",
      "type": "function"
    },
    {
      "inputs": [
        {
          "internalType": "uint256",
          "name": "",
          "type": "uint256"
        }
      ],
      "name": "patientRecord",
      "outputs": [
        {
          "internalType": "string",
          "name": "email",
          "type": "string"
        },
        {
          "internalType": "uint256",
          "name": "age",
          "type": "uint256"
        },
        {
          "internalType": "string",
          "name": "name",
          "type": "string"
        },
        {
          "internalType": "string",
          "name": "date",
          "type": "string"
        },
        {
          "internalType": "string",
          "name": "testReportStatus",
          "type": "string"
        },
        {
          "internalType": "string",
          "name": "Prescribtions",
          "type": "string"
        },
        {
          "internalType": "bool",
          "name": "verified",
          "type": "bool"
        }
      ],
      "stateMutability": "view",
      "type": "function"
    },
    {
      "inputs": [
        {
          "internalType": "uint256",
          "name": "",
          "type": "uint256"
        }
      ],
      "name": "patients",
      "outputs": [
        {
          "internalType": "string",
          "name": "email",
          "type": "string"
        },
        {
          "internalType": "string",
          "name": "name",
          "type": "string"
        },
        {
          "internalType": "uint256",
          "name": "age",
          "type": "uint256"
        }
      ],
      "stateMutability": "view",
      "type": "function"
    },
    {
      "inputs": [
        {
          "internalType": "address",
          "name": "",
          "type": "address"
        }
      ],
      "name": "rigistered",
      "outputs": [
        {
          "internalType": "bool",
          "name": "",
          "type": "bool"
        }
      ],
      "stateMutability": "view",
      "type": "function"
    },
    {
      "inputs": [
        {
          "internalType": "uint256",
          "name": "labReportNo",
          "type": "uint256"
        },
        {
          "internalType": "string",
          "name": "presc",
          "type": "string"
        }
      ],
      "name": "toVerify",
      "outputs": [],
      "stateMutability": "nonpayable",
      "type": "function"
    }
  ],
  "bytecode": "0x60806040526001805534801561001457600080fd5b50336000806101000a81548173ffffffffffffffffffffffffffffffffffffffff021916908373ffffffffffffffffffffffffffffffffffffffff160217905550613397806100646000396000f3fe608060405234801561001057600080fd5b50600436106100f55760003560e01c80637ea7118c11610097578063bed34bba11610066578063bed34bba1461028e578063c3c5a547146102be578063c9ceb234146102ee578063f26605251461030a576100f5565b80637ea7118c1461020657806387f8a0611461022457806393119a8314610240578063ae478f8f14610272576100f5565b80634bc71d67116100d35780634bc71d671461015257806356c58f05146101705780636b20664d146101a65780636e58f57d146101d6576100f5565b80630a72fa43146100fa5780630e232c611461011657806312ad1c3714610134575b600080fd5b610114600480360381019061010f9190612304565b610340565b005b61011e610468565b60405161012b9190612536565b60405180910390f35b61013c6105f5565b6040516101499190612536565b60405180910390f35b61015a610782565b60405161016791906126e6565b60405180910390f35b61018a60048036038101906101859190612708565b610c40565b60405161019d979695949392919061279d565b60405180910390f35b6101c060048036038101906101bb919061288d565b610f47565b6040516101cd91906128ba565b60405180910390f35b6101f060048036038101906101eb91906128d5565b610f67565b6040516101fd9190612a98565b60405180910390f35b61020e6115b7565b60405161021b9190612ac9565b60405180910390f35b61023e60048036038101906102399190612ae4565b6115db565b005b61025a60048036038101906102559190612708565b6119dd565b60405161026993929190612b40565b60405180910390f35b61028c60048036038101906102879190612b85565b611b27565b005b6102a860048036038101906102a39190612c70565b611c37565b6040516102b591906128ba565b60405180910390f35b6102d860048036038101906102d3919061288d565b611c90565b6040516102e591906128ba565b60405180910390f35b61030860048036038101906103039190612ce8565b611ce6565b005b610324600480360381019061031f9190612708565b611e77565b6040516103379796959493929190612e01565b60405180910390f35b60046040518060600160405280858152602001848152602001838152509080600181540180825580915050600190039060005260206000209060030201600090919091909150600082015181600001908161039b9190613098565b5060208201518160010190816103b19190613098565b5060408201518160020155505082600660003373ffffffffffffffffffffffffffffffffffffffff1673ffffffffffffffffffffffffffffffffffffffff168152602001908152602001600020908161040a9190613098565b506001600560003373ffffffffffffffffffffffffffffffffffffffff1673ffffffffffffffffffffffffffffffffffffffff16815260200190815260200160002060006101000a81548160ff021916908315150217905550505050565b60606004805480602002602001604051908101604052809291908181526020016000905b828210156105ec57838290600052602060002090600302016040518060600160405290816000820180546104bf90612ebb565b80601f01602080910402602001604051908101604052809291908181526020018280546104eb90612ebb565b80156105385780601f1061050d57610100808354040283529160200191610538565b820191906000526020600020905b81548152906001019060200180831161051b57829003601f168201915b5050505050815260200160018201805461055190612ebb565b80601f016020809104026020016040519081016040528092919081815260200182805461057d90612ebb565b80156105ca5780601f1061059f576101008083540402835291602001916105ca565b820191906000526020600020905b8154815290600101906020018083116105ad57829003601f168201915b505050505081526020016002820154815250508152602001906001019061048c565b50505050905090565b60606004805480602002602001604051908101604052809291908181526020016000905b82821015610779578382906000526020600020906003020160405180606001604052908160008201805461064c90612ebb565b80601f016020809104026020016040519081016040528092919081815260200182805461067890612ebb565b80156106c55780601f1061069a576101008083540402835291602001916106c5565b820191906000526020600020905b8154815290600101906020018083116106a857829003601f168201915b505050505081526020016001820180546106de90612ebb565b80601f016020809104026020016040519081016040528092919081815260200182805461070a90612ebb565b80156107575780601f1061072c57610100808354040283529160200191610757565b820191906000526020600020905b81548152906001019060200180831161073a57829003601f168201915b5050505050815260200160028201548152505081526020019060010190610619565b50505050905090565b60606000805b6002805490508110156107ef5760001515600282815481106107ad576107ac61316a565b5b906000526020600020906007020160060160009054906101000a900460ff161515036107e25781806107de906131c8565b9250505b8080600101915050610788565b5060008167ffffffffffffffff81111561080c5761080b6121a3565b5b60405190808252806020026020018201604052801561084557816020015b6108326120f6565b81526020019060019003908161082a5790505b5090506000805b600280549050811015610c365760001515600282815481106108715761087061316a565b5b906000526020600020906007020160060160009054906101000a900460ff16151503610c29576040518060e00160405280600283815481106108b6576108b561316a565b5b9060005260206000209060070201600001548152602001600283815481106108e1576108e061316a565b5b906000526020600020906007020160010180546108fd90612ebb565b80601f016020809104026020016040519081016040528092919081815260200182805461092990612ebb565b80156109765780601f1061094b57610100808354040283529160200191610976565b820191906000526020600020905b81548152906001019060200180831161095957829003601f168201915b50505050508152602001600283815481106109945761099361316a565b5b9060005260206000209060070201600201548152602001600283815481106109bf576109be61316a565b5b906000526020600020906007020160030180546109db90612ebb565b80601f0160208091040260200160405190810160405280929190818152602001828054610a0790612ebb565b8015610a545780601f10610a2957610100808354040283529160200191610a54565b820191906000526020600020905b815481529060010190602001808311610a3757829003601f168201915b5050505050815260200160028381548110610a7257610a7161316a565b5b90600052602060002090600702016004018054610a8e90612ebb565b80601f0160208091040260200160405190810160405280929190818152602001828054610aba90612ebb565b8015610b075780601f10610adc57610100808354040283529160200191610b07565b820191906000526020600020905b815481529060010190602001808311610aea57829003601f168201915b5050505050815260200160028381548110610b2557610b2461316a565b5b90600052602060002090600702016005018054610b4190612ebb565b80601f0160208091040260200160405190810160405280929190818152602001828054610b6d90612ebb565b8015610bba5780601f10610b8f57610100808354040283529160200191610bba565b820191906000526020600020905b815481529060010190602001808311610b9d57829003601f168201915b5050505050815260200160028381548110610bd857610bd761316a565b5b906000526020600020906007020160060160009054906101000a900460ff161515815250838381518110610c0f57610c0e61316a565b5b60200260200101819052508180610c25906131c8565b9250505b808060010191505061084c565b5081935050505090565b60038181548110610c5057600080fd5b9060005260206000209060070201600091509050806000018054610c7390612ebb565b80601f0160208091040260200160405190810160405280929190818152602001828054610c9f90612ebb565b8015610cec5780601f10610cc157610100808354040283529160200191610cec565b820191906000526020600020905b815481529060010190602001808311610ccf57829003601f168201915b505050505090806001015490806002018054610d0790612ebb565b80601f0160208091040260200160405190810160405280929190818152602001828054610d3390612ebb565b8015610d805780601f10610d5557610100808354040283529160200191610d80565b820191906000526020600020905b815481529060010190602001808311610d6357829003601f168201915b505050505090806003018054610d9590612ebb565b80601f0160208091040260200160405190810160405280929190818152602001828054610dc190612ebb565b8015610e0e5780601f10610de357610100808354040283529160200191610e0e565b820191906000526020600020905b815481529060010190602001808311610df157829003601f168201915b505050505090806004018054610e2390612ebb565b80601f0160208091040260200160405190810160405280929190818152602001828054610e4f90612ebb565b8015610e9c5780601f10610e7157610100808354040283529160200191610e9c565b820191906000526020600020905b815481529060010190602001808311610e7f57829003601f168201915b505050505090806005018054610eb190612ebb565b80601f0160208091040260200160405190810160405280929190818152602001828054610edd90612ebb565b8015610f2a5780601f10610eff57610100808354040283529160200191610f2a565b820191906000526020600020905b815481529060010190602001808311610f0d57829003601f168201915b5050505050908060060160009054906101000a900460ff16905087565b60056020528060005260406000206000915054906101000a900460ff1681565b60606000805b60038054905081101561105857600060038281548110610f9057610f8f61316a565b5b90600052602060002090600702016000018054610fac90612ebb565b80601f0160208091040260200160405190810160405280929190818152602001828054610fd890612ebb565b80156110255780601f10610ffa57610100808354040283529160200191611025565b820191906000526020600020905b81548152906001019060200180831161100857829003601f168201915b505050505090506110368186611c37565b1561104a578280611046906131c8565b9350505b508080600101915050610f6d565b5060008167ffffffffffffffff811115611075576110746121a3565b5b6040519080825280602002602001820160405280156110ae57816020015b61109b612135565b8152602001906001900390816110935790505b5090506000805b6003805490508110156115ab576000600382815481106110d8576110d761316a565b5b906000526020600020906007020160000180546110f490612ebb565b80601f016020809104026020016040519081016040528092919081815260200182805461112090612ebb565b801561116d5780601f106111425761010080835404028352916020019161116d565b820191906000526020600020905b81548152906001019060200180831161115057829003601f168201915b5050505050905061117e8188611c37565b1561159d576040518060e00160405280600384815481106111a2576111a161316a565b5b906000526020600020906007020160000180546111be90612ebb565b80601f01602080910402602001604051908101604052809291908181526020018280546111ea90612ebb565b80156112375780601f1061120c57610100808354040283529160200191611237565b820191906000526020600020905b81548152906001019060200180831161121a57829003601f168201915b50505050508152602001600384815481106112555761125461316a565b5b9060005260206000209060070201600101548152602001600384815481106112805761127f61316a565b5b9060005260206000209060070201600201805461129c90612ebb565b80601f01602080910402602001604051908101604052809291908181526020018280546112c890612ebb565b80156113155780601f106112ea57610100808354040283529160200191611315565b820191906000526020600020905b8154815290600101906020018083116112f857829003601f168201915b50505050508152602001600384815481106113335761133261316a565b5b9060005260206000209060070201600301805461134f90612ebb565b80601f016020809104026020016040519081016040528092919081815260200182805461137b90612ebb565b80156113c85780601f1061139d576101008083540402835291602001916113c8565b820191906000526020600020905b8154815290600101906020018083116113ab57829003601f168201915b50505050508152602001600384815481106113e6576113e561316a565b5b9060005260206000209060070201600401805461140290612ebb565b80601f016020809104026020016040519081016040528092919081815260200182805461142e90612ebb565b801561147b5780601f106114505761010080835404028352916020019161147b565b820191906000526020600020905b81548152906001019060200180831161145e57829003601f168201915b50505050508152602001600384815481106114995761149861316a565b5b906000526020600020906007020160050180546114b590612ebb565b80601f01602080910402602001604051908101604052809291908181526020018280546114e190612ebb565b801561152e5780601f106115035761010080835404028352916020019161152e565b820191906000526020600020905b81548152906001019060200180831161151157829003601f168201915b505050505081526020016003848154811061154c5761154b61316a565b5b906000526020600020906007020160060160009054906101000a900460ff1615158152508484815181106115835761158261316a565b5b60200260200101819052508280611599906131c8565b9350505b5080806001019150506110b5565b50819350505050919050565b60008054906101000a900473ffffffffffffffffffffffffffffffffffffffff1681565b60008054906101000a900473ffffffffffffffffffffffffffffffffffffffff1673ffffffffffffffffffffffffffffffffffffffff163373ffffffffffffffffffffffffffffffffffffffff1614611669576040517f08c379a00000000000000000000000000000000000000000000000000000000081526004016116609061325c565b60405180910390fd5b60005b6002805490508110156119d857826002828154811061168e5761168d61316a565b5b906000526020600020906007020160000154036119cb576001600282815481106116bb576116ba61316a565b5b906000526020600020906007020160060160006101000a81548160ff0219169083151502179055506119ca600282815481106116fa576116f961316a565b5b9060005260206000209060070201600101805461171690612ebb565b80601f016020809104026020016040519081016040528092919081815260200182805461174290612ebb565b801561178f5780601f106117645761010080835404028352916020019161178f565b820191906000526020600020905b81548152906001019060200180831161177257829003601f168201915b5050505050600283815481106117a8576117a761316a565b5b906000526020600020906007020160020154600284815481106117ce576117cd61316a565b5b906000526020600020906007020160030180546117ea90612ebb565b80601f016020809104026020016040519081016040528092919081815260200182805461181690612ebb565b80156118635780601f1061183857610100808354040283529160200191611863565b820191906000526020600020905b81548152906001019060200180831161184657829003601f168201915b50505050506002858154811061187c5761187b61316a565b5b9060005260206000209060070201600401805461189890612ebb565b80601f01602080910402602001604051908101604052809291908181526020018280546118c490612ebb565b80156119115780601f106118e657610100808354040283529160200191611911565b820191906000526020600020905b8154815290600101906020018083116118f457829003601f168201915b50505050506002868154811061192a5761192961316a565b5b9060005260206000209060070201600501805461194690612ebb565b80601f016020809104026020016040519081016040528092919081815260200182805461197290612ebb565b80156119bf5780601f10611994576101008083540402835291602001916119bf565b820191906000526020600020905b8154815290600101906020018083116119a257829003601f168201915b505050505087611ce6565b5b808060010191505061166c565b505050565b600481815481106119ed57600080fd5b9060005260206000209060030201600091509050806000018054611a1090612ebb565b80601f0160208091040260200160405190810160405280929190818152602001828054611a3c90612ebb565b8015611a895780601f10611a5e57610100808354040283529160200191611a89565b820191906000526020600020905b815481529060010190602001808311611a6c57829003601f168201915b505050505090806001018054611a9e90612ebb565b80601f0160208091040260200160405190810160405280929190818152602001828054611aca90612ebb565b8015611b175780601f10611aec57610100808354040283529160200191611b17565b820191906000526020600020905b815481529060010190602001808311611afa57829003601f168201915b5050505050908060020154905083565b60026040518060e001604052806001548152602001878152602001868152602001858152602001848152602001838152602001600015158152509080600181540180825580915050600190039060005260206000209060070201600090919091909150600082015181600001556020820151816001019081611ba99190613098565b50604082015181600201556060820151816003019081611bc99190613098565b506080820151816004019081611bdf9190613098565b5060a0820151816005019081611bf59190613098565b5060c08201518160060160006101000a81548160ff021916908315150217905550505060016000815480929190611c2b906131c8565b91905055505050505050565b600081604051602001611c4a91906132b8565b6040516020818303038152906040528051906020012083604051602001611c7191906132b8565b6040516020818303038152906040528051906020012014905092915050565b6000600560008373ffffffffffffffffffffffffffffffffffffffff1673ffffffffffffffffffffffffffffffffffffffff16815260200190815260200160002060009054906101000a900460ff169050919050565b60008054906101000a900473ffffffffffffffffffffffffffffffffffffffff1673ffffffffffffffffffffffffffffffffffffffff163373ffffffffffffffffffffffffffffffffffffffff1614611d74576040517f08c379a0000000000000000000000000000000000000000000000000000000008152600401611d6b90613341565b60405180910390fd5b60036040518060e001604052808881526020018781526020018681526020018581526020018481526020018381526020016001151581525090806001815401808255809150506001900390600052602060002090600702016000909190919091506000820151816000019081611dea9190613098565b50602082015181600101556040820151816002019081611e0a9190613098565b506060820151816003019081611e209190613098565b506080820151816004019081611e369190613098565b5060a0820151816005019081611e4c9190613098565b5060c08201518160060160006101000a81548160ff0219169083151502179055505050505050505050565b60028181548110611e8757600080fd5b9060005260206000209060070201600091509050806000015490806001018054611eb090612ebb565b80601f0160208091040260200160405190810160405280929190818152602001828054611edc90612ebb565b8015611f295780601f10611efe57610100808354040283529160200191611f29565b820191906000526020600020905b815481529060010190602001808311611f0c57829003601f168201915b505050505090806002015490806003018054611f4490612ebb565b80601f0160208091040260200160405190810160405280929190818152602001828054611f7090612ebb565b8015611fbd5780601f10611f9257610100808354040283529160200191611fbd565b820191906000526020600020905b815481529060010190602001808311611fa057829003601f168201915b505050505090806004018054611fd290612ebb565b80601f0160208091040260200160405190810160405280929190818152602001828054611ffe90612ebb565b801561204b5780601f106120205761010080835404028352916020019161204b565b820191906000526020600020905b81548152906001019060200180831161202e57829003601f168201915b50505050509080600501805461206090612ebb565b80601f016020809104026020016040519081016040528092919081815260200182805461208c90612ebb565b80156120d95780601f106120ae576101008083540402835291602001916120d9565b820191906000526020600020905b8154815290600101906020018083116120bc57829003601f168201915b5050505050908060060160009054906101000a900460ff16905087565b6040518060e001604052806000815260200160608152602001600081526020016060815260200160608152602001606081526020016000151581525090565b6040518060e001604052806060815260200160008152602001606081526020016060815260200160608152602001606081526020016000151581525090565b6000604051905090565b600080fd5b600080fd5b600080fd5b600080fd5b6000601f19601f8301169050919050565b7f4e487b7100000000000000000000000000000000000000000000000000000000600052604160045260246000fd5b6121db82612192565b810181811067ffffffffffffffff821117156121fa576121f96121a3565b5b80604052505050565b600061220d612174565b905061221982826121d2565b919050565b600067ffffffffffffffff821115612239576122386121a3565b5b61224282612192565b9050602081019050919050565b82818337600083830152505050565b600061227161226c8461221e565b612203565b90508281526020810184848401111561228d5761228c61218d565b5b61229884828561224f565b509392505050565b600082601f8301126122b5576122b4612188565b5b81356122c584826020860161225e565b91505092915050565b6000819050919050565b6122e1816122ce565b81146122ec57600080fd5b50565b6000813590506122fe816122d8565b92915050565b60008060006060848603121561231d5761231c61217e565b5b600084013567ffffffffffffffff81111561233b5761233a612183565b5b612347868287016122a0565b935050602084013567ffffffffffffffff81111561236857612367612183565b5b612374868287016122a0565b9250506040612385868287016122ef565b9150509250925092565b600081519050919050565b600082825260208201905092915050565b6000819050602082019050919050565b600081519050919050565b600082825260208201905092915050565b60005b838110156123f55780820151818401526020810190506123da565b60008484015250505050565b600061240c826123bb565b61241681856123c6565b93506124268185602086016123d7565b61242f81612192565b840191505092915050565b612443816122ce565b82525050565b600060608301600083015184820360008601526124668282612401565b915050602083015184820360208601526124808282612401565b9150506040830151612495604086018261243a565b508091505092915050565b60006124ac8383612449565b905092915050565b6000602082019050919050565b60006124cc8261238f565b6124d6818561239a565b9350836020820285016124e8856123ab565b8060005b85811015612524578484038952815161250585826124a0565b9450612510836124b4565b925060208a019950506001810190506124ec565b50829750879550505050505092915050565b6000602082019050818103600083015261255081846124c1565b905092915050565b600081519050919050565b600082825260208201905092915050565b6000819050602082019050919050565b60008115159050919050565b61259981612584565b82525050565b600060e0830160008301516125b7600086018261243a565b50602083015184820360208601526125cf8282612401565b91505060408301516125e4604086018261243a565b50606083015184820360608601526125fc8282612401565b915050608083015184820360808601526126168282612401565b91505060a083015184820360a08601526126308282612401565b91505060c083015161264560c0860182612590565b508091505092915050565b600061265c838361259f565b905092915050565b6000602082019050919050565b600061267c82612558565b6126868185612563565b93508360208202850161269885612574565b8060005b858110156126d457848403895281516126b58582612650565b94506126c083612664565b925060208a0199505060018101905061269c565b50829750879550505050505092915050565b600060208201905081810360008301526127008184612671565b905092915050565b60006020828403121561271e5761271d61217e565b5b600061272c848285016122ef565b91505092915050565b600082825260208201905092915050565b6000612751826123bb565b61275b8185612735565b935061276b8185602086016123d7565b61277481612192565b840191505092915050565b612788816122ce565b82525050565b61279781612584565b82525050565b600060e08201905081810360008301526127b7818a612746565b90506127c6602083018961277f565b81810360408301526127d88188612746565b905081810360608301526127ec8187612746565b905081810360808301526128008186612746565b905081810360a08301526128148185612746565b905061282360c083018461278e565b98975050505050505050565b600073ffffffffffffffffffffffffffffffffffffffff82169050919050565b600061285a8261282f565b9050919050565b61286a8161284f565b811461287557600080fd5b50565b60008135905061288781612861565b92915050565b6000602082840312156128a3576128a261217e565b5b60006128b184828501612878565b91505092915050565b60006020820190506128cf600083018461278e565b92915050565b6000602082840312156128eb576128ea61217e565b5b600082013567ffffffffffffffff81111561290957612908612183565b5b612915848285016122a0565b91505092915050565b600081519050919050565b600082825260208201905092915050565b6000819050602082019050919050565b600060e08301600083015184820360008601526129678282612401565b915050602083015161297c602086018261243a565b50604083015184820360408601526129948282612401565b915050606083015184820360608601526129ae8282612401565b915050608083015184820360808601526129c88282612401565b91505060a083015184820360a08601526129e28282612401565b91505060c08301516129f760c0860182612590565b508091505092915050565b6000612a0e838361294a565b905092915050565b6000602082019050919050565b6000612a2e8261291e565b612a388185612929565b935083602082028501612a4a8561293a565b8060005b85811015612a865784840389528151612a678582612a02565b9450612a7283612a16565b925060208a01995050600181019050612a4e565b50829750879550505050505092915050565b60006020820190508181036000830152612ab28184612a23565b905092915050565b612ac38161284f565b82525050565b6000602082019050612ade6000830184612aba565b92915050565b60008060408385031215612afb57612afa61217e565b5b6000612b09858286016122ef565b925050602083013567ffffffffffffffff811115612b2a57612b29612183565b5b612b36858286016122a0565b9150509250929050565b60006060820190508181036000830152612b5a8186612746565b90508181036020830152612b6e8185612746565b9050612b7d604083018461277f565b949350505050565b600080600080600060a08688031215612ba157612ba061217e565b5b600086013567ffffffffffffffff811115612bbf57612bbe612183565b5b612bcb888289016122a0565b9550506020612bdc888289016122ef565b945050604086013567ffffffffffffffff811115612bfd57612bfc612183565b5b612c09888289016122a0565b935050606086013567ffffffffffffffff811115612c2a57612c29612183565b5b612c36888289016122a0565b925050608086013567ffffffffffffffff811115612c5757612c56612183565b5b612c63888289016122a0565b9150509295509295909350565b60008060408385031215612c8757612c8661217e565b5b600083013567ffffffffffffffff811115612ca557612ca4612183565b5b612cb1858286016122a0565b925050602083013567ffffffffffffffff811115612cd257612cd1612183565b5b612cde858286016122a0565b9150509250929050565b60008060008060008060c08789031215612d0557612d0461217e565b5b600087013567ffffffffffffffff811115612d2357612d22612183565b5b612d2f89828a016122a0565b9650506020612d4089828a016122ef565b955050604087013567ffffffffffffffff811115612d6157612d60612183565b5b612d6d89828a016122a0565b945050606087013567ffffffffffffffff811115612d8e57612d8d612183565b5b612d9a89828a016122a0565b935050608087013567ffffffffffffffff811115612dbb57612dba612183565b5b612dc789828a016122a0565b92505060a087013567ffffffffffffffff811115612de857612de7612183565b5b612df489828a016122a0565b9150509295509295509295565b600060e082019050612e16600083018a61277f565b8181036020830152612e288189612746565b9050612e37604083018861277f565b8181036060830152612e498187612746565b90508181036080830152612e5d8186612746565b905081810360a0830152612e718185612746565b9050612e8060c083018461278e565b98975050505050505050565b7f4e487b7100000000000000000000000000000000000000000000000000000000600052602260045260246000fd5b60006002820490506001821680612ed357607f821691505b602082108103612ee657612ee5612e8c565b5b50919050565b60008190508160005260206000209050919050565b60006020601f8301049050919050565b600082821b905092915050565b600060088302612f4e7fffffffffffffffffffffffffffffffffffffffffffffffffffffffffffffffff82612f11565b612f588683612f11565b95508019841693508086168417925050509392505050565b6000819050919050565b6000612f95612f90612f8b846122ce565b612f70565b6122ce565b9050919050565b6000819050919050565b612faf83612f7a565b612fc3612fbb82612f9c565b848454612f1e565b825550505050565b600090565b612fd8612fcb565b612fe3818484612fa6565b505050565b5b8181101561300757612ffc600082612fd0565b600181019050612fe9565b5050565b601f82111561304c5761301d81612eec565b61302684612f01565b81016020851015613035578190505b61304961304185612f01565b830182612fe8565b50505b505050565b600082821c905092915050565b600061306f60001984600802613051565b1980831691505092915050565b6000613088838361305e565b9150826002028217905092915050565b6130a1826123bb565b67ffffffffffffffff8111156130ba576130b96121a3565b5b6130c48254612ebb565b6130cf82828561300b565b600060209050601f83116001811461310257600084156130f0578287015190505b6130fa858261307c565b865550613162565b601f19841661311086612eec565b60005b8281101561313857848901518255600182019150602085019450602081019050613113565b868310156131555784890151613151601f89168261305e565b8355505b6001600288020188555050505b505050505050565b7f4e487b7100000000000000000000000000000000000000000000000000000000600052603260045260246000fd5b7f4e487b7100000000000000000000000000000000000000000000000000000000600052601160045260246000fd5b60006131d3826122ce565b91507fffffffffffffffffffffffffffffffffffffffffffffffffffffffffffffffff820361320557613204613199565b5b600182019050919050565b7f6f6e6c7920646f636f746f722063616e20766572696679000000000000000000600082015250565b6000613246601783612735565b915061325182613210565b602082019050919050565b6000602082019050818103600083015261327581613239565b9050919050565b600081905092915050565b6000613292826123bb565b61329c818561327c565b93506132ac8185602086016123d7565b80840191505092915050565b60006132c48284613287565b915081905092915050565b7f6f6e6c7920646f63746f722063616e206164642070617469656e74732072656360008201527f6f72640000000000000000000000000000000000000000000000000000000000602082015250565b600061332b602383612735565b9150613336826132cf565b604082019050919050565b6000602082019050818103600083015261335a8161331e565b905091905056fea2646970667358221220458a4fed7cd23c3db0dba273c3091befb113994b28e76b59691118c8f945443664736f6c63430008180033",
  "linkReferences": {},
  "deployedLinkReferences": {}
}